:100000000C9434000C9451000C9451000C94510049
:100010000C9451000C9451000C9451000C9451001C
:100020000C9451000C9451000C9451000C94F60067
:100030000C9451000C9451000C9451000C945100FC
:100040000C9451000C9451000C9451000C945100EC
:100050000C9451000C9451000C9451000C945100DC
:100060000C9451000C94510011241FBECFEFD8E026
:10007000DEBFCDBF11E0A0E0B1E0E8E6F4E002C0F1
:1000800005900D92A030B107D9F711E0A0E0B1E0E2
:1000900001C01D92AE38B107E1F70E9403020C9433
:1000A00032020C9400000F931F93CF93DF93EC0167
:1000B000DB018A0180910201909103010097B1F068
:1000C000E9E0F1E021E030E0422FB9018081918147
:1000D000009741F02F5F3F4F379625313105A1F74B
:1000E000842F01C0822F843121F417C060E070E0BA
:1000F00040E0CB01880F991F880F991F880F991F27
:10010000861B970BFC01EE5FFE4FD183C083B38348
:10011000A283158304831682842FDF91CF911F91D0
:100120000F91089590E0FC01EE0FFF1FEE0FFF1FEF
:10013000EE0FFF1FE81BF90BEE5FFE4F11821082DE
:100140001382128215821482168280E00895CF9263
:10015000DF92EF92FF921F93CF93DF93C8E0D1E03D
:100160000F2EFAEFEF2EFFEFFF2EF02DEC0EFD1EFF
:1001700010E08881882391F0D701ED91FC911197CF
:10018000309761F00995888181508883F7018481D7
:100190009581009719F4812F0E9492001F5F279686
:1001A00087E090E0E80EF91E143119F7DF91CF9146
:1001B0001F91FF90EF90DF90CF900895CF93C0E014
:1001C0008C2F0E949200CF5FC431D1F781E792E07B
:1001D00090938900809388008CE08093810082E076
:1001E00080936F00CF910895789408951F920F9295
:1001F0000FB60F9211242F933F938F939F93AF933A
:10020000BF93CF93DF93EF93FF93E2E0F1E0DF0141
:1002100016962EE831E080819181009791F08281DD
:100220009381009759F48C918F5F8C938481958191
:10023000009739F001979383828303C001979383DA
:10024000828337961796E217F30729F7FF91EF910C
:10025000DF91CF91BF91AF919F918F913F912F915E
:100260000F900FBE0F901F9018951092C50083E35A
:100270008093C4001092C00088E08093C10086E0A3
:100280008093C2000895E0ECF0E0908195FFFDCFEF
:100290008093C6000895809100019091010163E070
:1002A00070E00E941E02862F972F609300017093CA
:1002B00001010E9443011092010110920001089572
:1002C000E0ECF0E0908195FFFDCF8093C6000895AB
:1002D000CF93DF93EC018881882331F021960E942F
:1002E000600189918823D9F7DF91CF910895CF9349
:1002F000DF9300D00F92CDB7DEB791E09983282F1E
:1003000030E0332314F421503F4F3A838B83CE01E6
:1003100001960E9468010F900F900F90DF91CF918E
:100320000895CF93DF9300D0CDB7DEB792E09983E5
:1003300080588A83CE0101960E9468010F900F9029
:10034000DF91CF910895CF93DF9300D00F92CDB777
:10035000DEB793E099831A82811181E08B83CE010D
:1003600001960E9468010F900F900F90DF91CF913E
:100370000895CF93DF9300D00F92CDB7DEB793E00F
:10038000998391E09A83811181E08B83CE0101965C
:100390000E9468010F900F900F90DF91CF91089508
:1003A000ECE7F0E0808184608083808180648083DA
:1003B000EAE7F0E0808187608083808180688083C5
:1003C0000895ECE7F0E090818770987F982B9083F8
:1003D000EAE7F0E0808180648083808186FDFDCF44
:1003E0008091780090917900089580E00E94E10169
:1003F0002091000130910101280F311D309301013E
:100400002093000108950E94D0010E9435010E94AE
:10041000DE0085EF91E060E070E048EE53E00E947E
:1004200053008BE491E068EE73E048EB5BE00E94E0
:1004300053000E94F4000E94A700FDCFAA1BBB1B23
:1004400051E107C0AA1FBB1FA617B70710F0A61BD4
:10045000B70B881F991F5A95A9F780959095BC01F5
:08046000CD010895F894FFCFCF
:00000001FF
