:100000000C9434000C9451000C9451000C94510049
:100010000C9451000C9451000C9451000C9451001C
:100020000C9451000C9451000C9451000C946401F8
:100030000C9451000C9451000C9451000C945100FC
:100040000C9451000C9451000C9451000C945100EC
:100050000C9451000C9451000C9451000C945100DC
:100060000C9451000C94510011241FBECFEFD8E026
:10007000DEBFCDBF11E0A0E0B1E0EAE4F3E002C0F2
:1000800005900D92A030B107D9F711E0A0E0B1E0E2
:1000900001C01D92AD38B107E1F70E94B9000C9480
:1000A000A3010C9400005B980895259A239A219A45
:1000B00008952D9A08952D9808952B9A08952B98B8
:1000C0000895299A0895299808950E945F000E9432
:1000D0005B000E94630008951092C50083E3809343
:1000E000C4001092C00088E08093C10086E0809335
:1000F000C2000895E0ECF0E0908195FFFDCF809381
:10010000C6000895CF93DF93EC01888199812FEF8A
:100110008F3F920749F022960E947A008991999127
:100120002FEF8F3F9207C1F7DF91CF910895E0EC59
:10013000F0E090819923ECF708950E945300529AC1
:10014000539808955A9808955A9A08955B9A089575
:100150000E9453000E94A2008AE08A95F1F700C035
:100160000E94A40085E38A95F1F700000E94A20096
:10017000FFCF0E9455000E949D000E946C000E94CB
:10018000A8000F931F93CF93DF93EC01DB018A014B
:1001900080910101909102010097B1F0E8E0F1E057
:1001A00021E030E0422FB90180819181009741F038
:1001B0002F5F3F4F379625313105A1F7842F01C0BE
:1001C000822F843121F417C060E070E040E0CB0161
:1001D000880F991F880F991F880F991F861B970BEF
:1001E000FC01EF5FFE4FD183C083B383A2831583ED
:1001F00004831682842FDF91CF911F910F91089570
:1002000090E0FC01EE0FFF1FEE0FFF1FEE0FFF1F30
:10021000E81BF90BEF5FFE4F1182108213821282EE
:1002200015821482168280E00895CF92DF92EF92B9
:10023000FF921F93CF93DF93C7E0D1E00F2EFAEF29
:10024000EF2EFFEFFF2EF02DEC0EFD1E10E088814B
:10025000882391F0D701ED91FC911197309761F0CF
:100260000995888181508883F70184819581009761
:1002700019F4812F0E9400011F5F279687E090E00C
:10028000E80EF91E143119F7DF91CF911F91FF90FD
:10029000EF90DF90CF900895CF93C0E08C2F0E9415
:1002A0000001CF5FC431D1F781E792E090938900DC
:1002B000809388008CE08093810082E080936F00BF
:1002C000CF910895789408951F920F920FB60F92D0
:1002D00011242F933F938F939F93AF93BF93CF930B
:1002E000DF93EF93FF93E1E0F1E0DF0116962DE855
:1002F00031E080819181009791F082819381009714
:1003000059F48C918F5F8C9384819581009739F09B
:1003100001979383828303C00197938382833796E7
:100320001796E217F30729F7FF91EF91DF91CF912D
:10033000BF91AF919F918F913F912F910F900FBEE1
:0A0340000F901F901895F894FFCF5E
:00000001FF
