:100000000C9434000C9451000C9451000C94510049
:100010000C9451000C9451000C9451000C9451001C
:100020000C9451000C9451000C9451000C94F60067
:100030000C9451000C9451000C9451000C945100FC
:100040000C9451000C9451000C9451000C945100EC
:100050000C9451000C9451000C9451000C945100DC
:100060000C9451000C94510011241FBECFEFD8E026
:10007000DEBFCDBF11E0A0E0B1E0EAE7F0E102C0F1
:1000800005900D92AA31B107D9F711E0AAE1B1E0CC
:1000900001C01D92A33BB107E1F70E94A0050C949B
:1000A0003B080C9400000F931F93CF93DF93DC0168
:1000B000EB018A0180912201909123010097B1F018
:1000C000E9E2F1E021E030E0422FB9018081918145
:1000D000009741F02F5F3F4F379620313105A1F750
:1000E000842F01C0822F8F3021F417C060E070E0B0
:1000F00040E0CB01880F991F880F991F880F991F27
:10010000861B970BFC01EE5DFE4FB183A083D3836A
:10011000C283158304831682842FDF91CF911F91B0
:100120000F91089590E0FC01EE0FFF1FEE0FFF1FEF
:10013000EE0FFF1FE81BF90BEE5DFE4F11821082E0
:100140001382128215821482168280E00895CF9263
:10015000DF92EF92FF921F93CF93DF93C8E2D1E03B
:100160000F2EFAEFEF2EFFEFFF2EF02DEC0EFD1EFF
:1001700010E08881882391F0D701ED91FC911197CF
:10018000309761F00995888181508883F7018481D7
:100190009581009719F4812F0E9492001F5F279686
:1001A00087E090E0E80EF91E1F3019F7DF91CF913C
:1001B0001F91FF90EF90DF90CF900895CF93C0E014
:1001C0008C2F0E949200CF5FCF30D1F781E792E071
:1001D00090938900809388008CE08093810082E076
:1001E00080936F00CF910895789408951F920F9295
:1001F0000FB60F9211242F933F938F939F93AF933A
:10020000BF93CF93DF93EF93FF93E2E2F1E0DF013F
:1002100016962BE831E080819181009791F08281E0
:100220009381009759F48C918F5F8C938481958191
:10023000009739F001979383828303C001979383DA
:10024000828337961796E217F30729F7FF91EF910C
:10025000DF91CF91BF91AF919F918F913F912F915E
:100260000F900FBE0F901F9018952B9A08952B9802
:10027000089580911B0190911C010A9690931C0196
:1002800080931B01089580911B0190911C010A9796
:1002900090931C0180931B010895259A239A219A1B
:1002A00008952D9A08952D980895299A08952998CA
:1002B00008950E9437010E9453010E94570108953A
:1002C0001092C50083E38093C4001092C00088E1BF
:1002D0008093C10086E08093C2000895E0ECF0E0D6
:1002E000908195FFFDCF8093C6000895CF93DF9353
:1002F000EC01888199812FEF8F3F920749F0229678
:100300000E946E01899199912FEF8F3F9207C1F75B
:10031000DF91CF910895E0ECF0E090819923ECF724
:1003200008958091C000882324F48091C60090E055
:1003300008958FEF9FEF08950F931F93CF93DF934F
:10034000CDB7DEB728970FB6F894DEBF0FBECDBF8E
:100350008C019923CCF0BC01992314F461507F4F98
:10036000672F770F770B882777FD8095982F0E944E
:10037000D2060E940D070E94A406462FC80160E025
:1003800071E00E94280802C080E040E021E030E0F7
:100390003A8329834B831C828D831E828FEF9FEFCC
:1003A00098878F83CE0101960E94760128960FB61A
:1003B000F894DEBF0FBECDBFDF91CF911F910F919B
:1003C0000895CF93DF9300D000D000D0CDB7DEB733
:1003D00080589F4F2AF08F3F910529F024F002C0EA
:1003E00080E001C08FEF22E030E03A8329838B83E5
:1003F0001C828FEF9FEF9E838D83CE0101960E941A
:10040000760126960FB6F894DEBF0FBECDBFDF9102
:10041000CF910895CF93DF93CDB7DEB728970FB66E
:10042000F894DEBF0FBECDBF23E030E03A832983CE
:100430001C821B82833008F082E08D831E828FEF46
:100440009FEF98878F83CE0101960E9476012896B0
:100450000FB6F894DEBF0FBECDBFDF91CF910895E8
:1004600080911D01823009F062C0809112018130BB
:1004700009F05DC082E08093120181E080931D014C
:100480000E94590180910201909103012FEF8F3F4B
:10049000920761F483E491E065E070E044E650E0A7
:1004A0000E94530080930201109203018091000189
:1004B000909101012FEF8F3F920761F481E593E066
:1004C00067E070E044E650E00E9453008093000132
:1004D0001092010180910E0190910F012FEF8F3F3B
:1004E000920761F485E391E066E070E044E650E055
:1004F0000E94530080930E0110920F0180910A0117
:1005000090910B012FEF8F3F920761F487E391E009
:1005100069E370E044E650E00E94530080930A01D2
:1005200010920B010E94550182E00E940A02089578
:1005300080911D01882309F060C0809112018130F3
:1005400009F05BC01092120180931D010E945901B5
:1005500080910401909105012FEF8F3F920761F484
:1005600089E391E065E070E044E650E00E945300CA
:100570008093040110920501809100019091010186
:100580002FEF8F3F920761F481E593E067E070E021
:1005900044E650E00E945300809300011092010154
:1005A00080910E0190910F012FEF8F3F920761F420
:1005B00085E391E066E070E044E650E00E9453007D
:1005C00080930E0110920F0180910A0190910B010E
:1005D0002FEF8F3F920761F487E391E069E370E0CA
:1005E00044E650E00E94530080930A0110920B01F0
:1005F0000E94510182E00E940A02089580911E012A
:1006000090911F0165E070E00E941408862F972FDB
:1006100060931E0170931F012091170130E0821733
:10062000930718F00E94980208C02091180130E04A
:100630002817390710F00E94300280911E0190E0C7
:100640000E949C0110921F0110921E01089580913A
:1006500020019091210165E070E00E941408862F2E
:10066000972F60932001709321012091150130E0B4
:100670008217930718F00E94980208C02091160173
:1006800030E02817390710F00E94300280912001D5
:10069000909121010E94E10110922101109220010C
:1006A0000895CF93DF9380911B0190911C012091BD
:1006B000130130E02817390708F441C020911201D6
:1006C0002230E9F520911D012130C9F510921D015C
:1006D000C1E0C0931201809102010E9492008091BA
:1006E00000010E94920080910E010E949200809170
:1006F0000A010E9492008FEF9FEF90930301809375
:100700000201909301018093000190930F01809367
:100710000E0190930B0180930A0180911301809345
:100720001B0110921C0110921D01C09312010E9426
:1007300059010E94550181E00E940A0248C020919F
:10074000140130E08217930708F441C08091120130
:100750008823E9F580911D018130C9F5D2E0D0935D
:100760001D01C1E0C0931201809104010E9492001A
:10077000809100010E94920080910E010E949200DF
:1007800080910A010E9492008FEF9FEF90930501E4
:1007900080930401909301018093000190930F01D5
:1007A00080930E0190930B0180930A0180911401B4
:1007B00080931B0110921C01D0931D01C093120164
:1007C0000E9459010E94510180E00E940A02DF91BB
:1007D000CF910895EBE8F1E02BED31E08FEF9FEF43
:1007E00081939193E217F307D9F7089520918B0134
:1007F00030918C019FEF2F3F390791F090E04BE84B
:1008000051E09F5F292F30E0F901EE0FFF1FE40F49
:10081000F51F60817181EFEF6F3F7E0791F702C096
:1008200020E030E0F901EE0FFF1FE557FE4F808317
:100830001182089580911A018B3729F00E94EA03F2
:100840008BE780931A010E9491012FEF8F3F92074F
:1008500009F4BAC00E94F6030E9491012FEF8F3F66
:100860009207C1F720918B0130918C0140918D014D
:1008700050918E0180918F01909190012A30310525
:1008800081F44130510529F40E9430020E94EA03AC
:1008900008958FEF4F3F580709F496C00E94EA036E
:1008A00008952B30310581F44130510529F40E941F
:1008B00098020E94EA0308952FEF4F3F520709F470
:1008C00083C00E94EA03089524313105E1F42FEF3B
:1008D0004F3F520709F478C02FEF8F3F920709F47A
:1008E00073C0542F4427840F951F982F80931301B2
:1008F00080911D01882321F490931B0110921C010B
:100900000E94EA03089525313105E1F42FEF4F3FAE
:10091000520709F459C02FEF8F3F920709F454C0D2
:10092000542F4427840F951F982F80931401809192
:100930001D01823021F490931B0110921C010E9432
:10094000EA0308952E31310559F48FEF4F3F5807D0
:10095000D9F140585040409315010E94EA03089590
:100960002F31310559F42FEF4F3F520769F14058AD
:100970005040409316010E94EA0308952032310549
:1009800069F42FEF4F3F5207F9F02FEF8F3F920797
:10099000D9F0809317010E94EA03089521323105AE
:1009A00069F42FEF4F3F520779F02FEF8F3F9207F7
:1009B00059F0809318010E94EA0308958FEF2F3FAA
:1009C000380711F00E94EA030895ECE7F0E0808117
:1009D0008E7F80830895ECE7F0E0808181608083E2
:1009E0000895ECE7F0E0808180648083EAE7F0E03E
:1009F0008081876080838081806880830895ECE7B0
:100A0000F0E090818770987F982B9083EAE7F0E080
:100A1000808180648083808186FDFDCF8091780015
:100A20009091790008950E94EB0481E00E94FF04F8
:100A3000BC01769567957695679580E090E00E9479
:100A4000D00620E030E04FE753E40E943C0620E06F
:100A500030E048EC52E40E94B1079B01AC0160E039
:100A600070E088EC92E40E94D7050E94A406809171
:100A70001E0190911F01860F911D90931F0180937D
:100A80001E0108950E94E50480E00E94FF04BC015D
:100A900080E090E00E94D00620E030E040E85AE399
:100AA0000E94B107462F572F682F792FCB01BA012B
:100AB00020E030E040EA50E40E94B107462F572F73
:100AC000682F792FCB01BA0120E030E040E05FE3EE
:100AD0000E94D70520E030E048EC52E40E94B107C4
:100AE0000E94A4068091200190912101860F911D02
:100AF0009093210180932001089580911B01909192
:100B00001C010E94E101089580911D01882361F478
:100B10008091130180931B0110921C010E945501CA
:100B200081E00E940A0208958091140180931B01C4
:100B300010921C010E94510180E00E940A02089557
:100B40000E94F1040E944D010E9460010E94DE009B
:100B50000E94840582E495E060E070E048EC50E09B
:100B60000E94530083E195E064E670E048EC50E0B9
:100B70000E94530087E293E062EF73E048EE53E097
:100B80000E9453008EEF92E066E574E048EE53E079
:100B90000E9453008AE194E06BEE73E042E350E080
:100BA0000E9453000E94F4000E94A700FDCF5058FD
:100BB000BB27AA270ED084C175D130F07AD120F09E
:100BC00031F49F3F11F41EF46AC10EF4E095E7FB87
:100BD00037C1E92F86D180F3BA17620773078407FC
:100BE000950718F071F49EF5B5C10EF4E0950B2E43
:100BF000BA2FA02D0B01B90190010C01CA01A0016F
:100C00001124FF27591B99F0593F50F4503E68F1C9
:100C10001A16F040A22F232F342F4427585FF3CF0A
:100C2000469537952795A795F0405395C9F77EF4DB
:100C30001F16BA0B620B730B840BBAF09150A1F024
:100C4000FF0FBB1F661F771F881FC2F70EC0BA0FAA
:100C5000621F731F841F48F4879577956795B79532
:100C6000F7959E3F08F0B3CF9395880F08F099272A
:100C7000EE0F9795879508950CD022C11AD140F0B8
:100C800011D130F021F45F3F19F0DAC0511163C186
:100C900006C127D198F39923C9F35523B1F3951BC6
:100CA000550BBB27AA2762177307840738F09F5F8D
:100CB0005F4F220F331F441FAA1FA9F333D00E2EFC
:100CC0003AF0E0E830D091505040E695001CCAF769
:100CD00029D0FE2F27D0660F771F881FBB1F26172E
:100CE00037074807AB07B0E809F0BB0B802DBF0101
:100CF000FF2793585F4F2AF09E3F510568F0A0C030
:100D00002AC15F3FECF3983EDCF3869577956795B3
:100D1000B795F7959F5FC9F7880F911D96958795B1
:100D200097F90895E1E0660F771F881FBB1F6217D0
:100D300073078407BA0720F0621B730B840BBA0B8E
:100D4000EE1F88F7E0950895D4D088F09F5790F073
:100D5000B92F9927B751A0F0D1F0660F771F881FE0
:100D6000991F1AF0BA95C9F712C0B13081F0F2D0CC
:100D7000B1E00895EFC0672F782F8827B85F39F06A
:100D8000B93FCCF3869577956795B395D9F73EF43F
:100D900090958095709561957F4F8F4F9F4F0895E7
:100DA000E89409C097FB3EF4909580957095619505
:100DB0007F4F8F4F9F4F9923A9F0F92F96E9BB27BB
:100DC0009395F695879577956795B795F111F8CF37
:100DD000FAF4BB0F11F460FF1BC06F5F7F4F8F4FA2
:100DE0009F4F16C0882311F096E911C0772321F098
:100DF0009EE8872F762F05C0662371F096E8862F30
:100E000070E060E02AF09A95660F771F881FDAF786
:100E1000880F9695879597F9089585D080F09F372C
:100E200040F491110EF097C060E070E080E89FEB15
:100E3000089526F41B16611D711D811D07C021C078
:100E400097F99F6780E870E060E00895882371F467
:100E5000772321F09850872B762F07C0662311F453
:100E600099270DC09051862B70E060E02AF09A958A
:100E7000660F771F881FDAF7880F9695879597F981
:100E800008959F3F31F0915020F4879577956795AD
:100E9000B795880F911D9695879597F908959FEFBF
:100EA00080EC089500240A94161617061806090601
:100EB000089500240A9412161306140605060895D0
:100EC000092E0394000C11F4882352F0BB0F40F458
:100ED000BF2B11F460FF04C06F5F7F4F8F4F9F4F98
:100EE000089557FD9058440F551F59F05F3F71F01A
:100EF0004795880F97FB991F61F09F3F79F0879581
:100F00000895121613061406551FF2CF4695F1DF09
:100F100008C0161617061806991FF1CF8695710599
:100F2000610508940895E5DFA0F0BEE7B91788F4DD
:100F3000BB279F3860F41616B11D672F782F8827BE
:100F4000985FF7CF869577956795B11D93959639FC
:100F5000C8F30895E894BB2766277727CB0197F954
:100F600008950BD0ADCF9EDF28F0A3DF18F09523B6
:100F700009F066CF94CF1124EECFB3DFA0F3959F95
:100F8000D1F3950F50E0551F629FF001729FBB2770
:100F9000F00DB11D639FAA27F00DB11DAA1F649F1C
:100FA0006627B00DA11D661F829F2227B00DA11DCF
:100FB000621F739FB00DA11D621F839FA00D611D55
:100FC000221F749F3327A00D611D231F849F600D76
:100FD000211D822F762F6A2F11249F5750408AF0AF
:100FE000E1F088234AF0EE0FFF1FBB1F661F771F3B
:100FF000881F91505040A9F79E3F510570F020CFB7
:10100000AACF5F3FECF3983EDCF386957795679522
:10101000B795F795E7959F5FC1F7FE2B880F911D58
:101020009695879597F90895AA1BBB1B51E107C0B8
:10103000AA1FBB1FA617B70710F0A61BB70B881F68
:10104000991F5A95A9F780959095BC01CD010895F7
:1010500097FB092E07260AD077FD04D0E5DF06D0DE
:1010600000201AF4709561957F4F0895F6F79095DA
:0A10700081959F4F0895F894FFCF7B
:10107A00FFFFFFFFFFFFFFFFFFFFFFFFFFFFFFFF76
:0A108A00FFFF010A6E19145F1E003B
:00000001FF
