S01200007465737473656E736F722E73726563B8
S11300000C9434000C9451000C9451000C94510045
S11300100C9451000C9451000C9451000C94510018
S11300200C9451000C9451000C9451000C94F60063
S11300300C9451000C9451000C9451000C945100F8
S11300400C9451000C9451000C9451000C945100E8
S11300500C9451000C9451000C9451000C945100D8
S11300600C9451000C94510011241FBECFEFD8E022
S1130070DEBFCDBF11E0A0E0B1E0E6E3FCE002C0EA
S113008005900D92A630B107D9F711E0A6E0B1E0D2
S113009001C01D92A53EB107E1F70E94A3030C9491
S11300A019060C9400000F931F93CF93DF93EC0178
S11300B0DB018A0180910A0190910B010097B1F054
S11300C0E1E1F1E021E030E0422FB901808191814A
S11300D0009741F02F5F3F4F37962F313105A1F73D
S11300E0842F01C0822F8E3121F417C060E070E0AC
S11300F040E0CB01880F991F880F991F880F991F23
S1130100861B970BFC01E65FFE4FD183C083B3834C
S1130110A283158304831682842FDF91CF911F91CC
S11301200F91089590E0FC01EE0FFF1FEE0FFF1FEB
S1130130EE0FFF1FE81BF90BE65FFE4F11821082E2
S11301401382128215821482168280E00895CF925F
S1130150DF92EF92FF921F93CF93DF93C0E1D1E040
S11301600F2EFAEFEF2EFFEFFF2EF02DEC0EFD1EFB
S113017010E08881882391F0D701ED91FC911197CB
S1130180309761F00995888181508883F7018481D3
S11301909581009719F4812F0E9492001F5F279682
S11301A087E090E0E80EF91E1E3119F7DF91CF9138
S11301B01F91FF90EF90DF90CF900895CF93C0E010
S11301C08C2F0E949200CF5FCE31D1F781E792E06D
S11301D090938900809388008CE08093810082E072
S11301E080936F00CF910895789408951F920F9291
S11301F00FB60F9211242F933F938F939F93AF9336
S1130200BF93CF93DF93EF93FF93EAE0F1E0DF0135
S113021016962CED31E080819181009791F08281D6
S11302209381009759F48C918F5F8C93848195818D
S1130230009739F001979383828303C001979383D6
S1130240828337961796E217F30729F7FF91EF9108
S1130250DF91CF91BF91AF919F918F913F912F915A
S11302600F900FBE0F901F9018952B9A08952B98FE
S113027008958091DD0190910201891B8093DD0135
S113028008959091DD0180910201890F8093DD0131
S1130290089510920901109208010895109207011F
S11302A01092060108953091040120910301832FD7
S11302B090E0821B91096091020170E00E940606A1
S11302C0009721F4253010F0231748F080EA80933A
S11302D004018AE08093030185E08093020108957C
S11302E0259A239A219A08952D9A08952D98089570
S11302F0299A089580910101882339F48091040199
S11303008093DD010E947801089580910301809318
S1130310DD010E9474010895299808950E9437010F
S11303200E9476010E948C01089580910001882327
S113033051F590910101913031F181E080930101F7
S11303400E948E0189E391E060E070E042E350E0B6
S11303500E9453008093E10185E391E060E070E046
S113036044E650E00E9453008093DF0187E391E06C
S113037062E370E044E650E00E9453008093E4019D
S11303800E9474012BC0823049F5809101018130B3
S113039029F181E0809301010E948E0181E491E0C2
S11303A060E070E042E350E00E9453008093DE017D
S11303B085E391E060E070E044E650E00E94530081
S11303C08093DF0187E391E062E370E044E650E06C
S11303D00E9453008093E4010E9478018091DD0122
S11303E0909103018917F9F4909100019923D9F4AC
S11303F0909101019130B9F482E08093010181E090
S1130400809300010E948E018091E1010E9492007C
S11304108091DF010E9492008091E4010E94920089
S11304200E9474010895909104018917E1F4809168
S113043000018230C1F4809101018130A1F4109255
S11304400101809300010E948E018091DE010E94CF
S113045092008091DF010E9492008091E4010E9449
S113046092000E94780108951092C50083E380935E
S1130470C4001092C00088E08093C10086E080939D
S1130480C2000895E0ECF0E0908195FFFDCF8093E9
S1130490C6000895CF93DF93EC018881882331F05F
S11304A021960E94420289918823D9F7DF91CF9146
S11304B00895E0ECF0E090819923ECF70895CF9350
S11304C0DF9300D00F92CDB7DEB791E09983282F48
S11304D030E0332314F421503F4F3A838B83CE0111
S11304E001960E944A020F900F900F90DF91CF91D6
S11304F00895809106019091070165E070E00E94E3
S1130500F205862F60930601709307010E945F0233
S11305100895CF93DF9300D0CDB7DEB792E09983EF
S113052080588A83CE0101960E944A020F900F9050
S1130530DF91CF910895809108019091090165E0C0
S113054070E00E94F205862F609308017093090100
S11305500E9489020895CF93DF9300D00F92CDB704
S1130560DEB793E099831A82811181E08B83CE01F7
S113057001960E944A020F900F900F90DF91CF9145
S11305800895CF93DF9300D00F92CDB7DEB793E0F9
S1130590998391E09A83811181E08B83CE01019646
S11305A00E944A020F900F900F90DF91CF9108950F
S11305B0ECE7F0E080818E7F80830895ECE7F0E043
S11305C08081816080830895ECE7F0E0808180641D
S11305D08083EAE7F0E0808187608083808180689F
S11305E080830895ECE7F0E090818770987F982BE2
S11305F09083EAE7F0E0808180648083808186FDD7
S1130600FDCF809178009091790008950E94DE02D8
S113061081E00E94F202BC01769567957695679514
S113062080E090E00E94010520E030E04FE753E4D1
S11306300E946D0420E030E048EC52E40E948F05F3
S11306409B01AC0160E070E088EC92E40E94080435
S11306500E94D5048091060190910701860F911D97
S1130660909307018093060108950E94D80280E0C8
S11306700E94F202BC0180E090E00E94010520E0AB
S113068030E040E85AE30E948F05462F572F682F29
S1130690792FCB01BA0120E030E040EA50E40E9417
S11306A08F05462F572F682F792FCB01BA0120E0F1
S11306B030E040E05FE30E94080420E030E048ECD2
S11306C052E40E948F050E94D50480910801909104
S11306D00901860F911D90930901809308010895E3
S11306E080910101882311F41092000108958091F2
S11306F00101823011F48093000108958091060174
S1130700909107018035910518F00E9470030895B7
S11307108531910510F40E947703089580910801B2
S1130720909109018631910518F00E947003089593
S11307308531910510F40E94770308958091DD01BD
S11307400E94420208950E94E4020E9470010E94E5
S113075034020E94DE0083E591E060E070E041E055
S113076050E00E9453008AE791E065E070E040E0C9
S113077050E00E94530085E393E060E070E048ECB1
S113078050E00E94530086E093E064E670E048EC99
S113079050E00E9453008BE992E068EE73E048EE6B
S11307A053E00E94530089E792E06CE474E048EE61
S11307B053E00E9453008EE893E06CE474E048EE4A
S11307C053E00E9453008EE793E06CE474E048EE3B
S11307D053E00E94530089E491E068EE73E048EE30
S11307E053E00E9453008EE491E06CE474E048EE20
S11307F053E00E94530085E991E068EE73E04AE01B
S113080050E00E9453000E94F4000E94A700FDCF14
S11308105058BB27AA270ED048C139D130F03ED159
S113082020F031F49F3F11F41EF42EC10EF4E09534
S1130830E7FB24C1E92F4AD180F3BA176207730793
S11308408407950718F071F49EF562C10EF4E095E3
S11308500B2EBA2FA02D0B01B90190010C01CA0176
S1130860A0011124FF27591B99F0593F50F4503E21
S113087068F11A16F040A22F232F342F4427585F13
S1130880F3CF469537952795A795F0405395C9F72B
S11308907EF41F16BA0B620B730B840BBAF09150E3
S11308A0A1F0FF0FBB1F661F771F881FC2F70EC082
S11308B0BA0F621F731F841F48F487957795679555
S11308C0B795F7959E3F08F0B3CF9395880F08F03E
S11308D09927EE0F9795879508950CD0E6C0DED042
S11308E040F0D5D030F021F45F3F19F0C7C051116A
S11308F010C1CAC0EBD098F39923C9F35523B1F3BF
S1130900951B550BBB27AA2762177307840738F07A
S11309109F5F5F4F220F331F441FAA1FA9F333D0D9
S11309200E2E3AF0E0E830D091505040E695001C8D
S1130930CAF729D0FE2F27D0660F771F881FBB1F49
S1130940261737074807AB07B0E809F0BB0B802D23
S1130950BF01FF2793585F4F2AF09E3F510568F06F
S11309608DC0D7C05F3FECF3983EDCF38695779556
S11309706795B795F7959F5FC9F7880F911D969571
S1130980879597F90895E1E0660F771F881FBB1FCD
S1130990621773078407BA0720F0621B730B840B7A
S11309A0BA0BEE1F88F7E095089598D088F09F570A
S11309B090F0B92F9927B751A0F0D1F0660F771FA7
S11309C0881F991F1AF0BA95C9F712C0B13081F087
S11309D09FD0B1E008959CC0672F782F8827B85F17
S11309E039F0B93FCCF3869577956795B395D9F7E8
S11309F03EF490958095709561957F4F8F4F9F4FF2
S1130A000895E89409C097FB3EF4909580957095FD
S1130A1061957F4F8F4F9F4F9923A9F0F92F96E946
S1130A20BB279395F695879577956795B795F111BB
S1130A30F8CFFAF4BB0F11F460FF1BC06F5F7F4F58
S1130A408F4F9F4F16C0882311F096E911C077236A
S1130A5021F09EE8872F762F05C0662371F096E873
S1130A60862F70E060E02AF09A95660F771F881F42
S1130A70DAF7880F9695879597F9089597F99F6700
S1130A8080E870E060E008959FEF80EC0895002412
S1130A900A941616170618060906089500240A94DF
S1130AA012161306140605060895092E0394000C65
S1130AB011F4882352F0BB0F40F4BF2B11F460FFF4
S1130AC004C06F5F7F4F8F4F9F4F089557FD90581D
S1130AD0440F551F59F05F3F71F04795880F97FBFE
S1130AE0991F61F09F3F79F08795089512161306B8
S1130AF01406551FF2CF4695F1DF08C016161706E7
S1130B001806991FF1CF869571056105089408951B
S1130B10E894BB2766277727CB0197F908950BD074
S1130B20C4CFB5DF28F0BADF18F0952309F0A6CFBB
S1130B30ABCF1124EECFCADFA0F3959FD1F3950F6D
S1130B4050E0551F629FF001729FBB27F00DB11D4D
S1130B50639FAA27F00DB11DAA1F649F6627B00DDD
S1130B60A11D661F829F2227B00DA11D621F739FC6
S1130B70B00DA11D621F839FA00D611D221F749FD4
S1130B803327A00D611D231F849F600D211D822F1B
S1130B90762F6A2F11249F5750408AF0E1F0882362
S1130BA04AF0EE0FFF1FBB1F661F771F881F91506F
S1130BB05040A9F79E3F510570F060CFAACF5F3F28
S1130BC0ECF3983EDCF3869577956795B795F795A2
S1130BD0E7959F5FC1F7FE2B880F911D969587952A
S1130BE097F90895AA1BBB1B51E107C0AA1FBB1F9D
S1130BF0A617B70710F0A61BB70B881F991F5A95A5
S1130C00A9F780959095BC01CD01089597FB092E15
S1130C1007260AD077FD04D0E5DF06D000201AF4B9
S1130C20709561957F4F0895F6F7909581959F4F44
S1090C300895F894FFCFC3
S1090C360102050AA00002
S9030000FC
