:100000000C9434000C9451000C9451000C94510049
:100010000C9451000C9451000C9451000C9451001C
:100020000C9451000C9451000C9451000C94F60067
:100030000C9451000C9451000C9451000C945100FC
:100040000C9451000C9451000C9451000C945100EC
:100050000C9451000C9451000C9451000C945100DC
:100060000C9451000C94510011241FBECFEFD8E026
:10007000DEBFCDBF11E0A0E0B1E0E4E7FAE002C0EE
:1000800005900D92A630B107D9F711E0A6E0B1E0D6
:1000900001C01D92A33EB107E1F70E943A030C9400
:1000A00038050C9400000F931F93CF93DF93EC015E
:1000B000DB018A0180910801909109010097B1F05C
:1000C000EFE0F1E021E030E0422FB9018081918141
:1000D000009741F02F5F3F4F37962F313105A1F741
:1000E000842F01C0822F8E3121F417C060E070E0B0
:1000F00040E0CB01880F991F880F991F880F991F27
:10010000861B970BFC01E85FFE4FD183C083B3834E
:10011000A283158304831682842FDF91CF911F91D0
:100120000F91089590E0FC01EE0FFF1FEE0FFF1FEF
:10013000EE0FFF1FE81BF90BE85FFE4F11821082E4
:100140001382128215821482168280E00895CF9263
:10015000DF92EF92FF921F93CF93DF93CEE0D1E037
:100160000F2EFAEFEF2EFFEFFF2EF02DEC0EFD1EFF
:1001700010E08881882391F0D701ED91FC911197CF
:10018000309761F00995888181508883F7018481D7
:100190009581009719F4812F0E9492001F5F279686
:1001A00087E090E0E80EF91E1E3119F7DF91CF913C
:1001B0001F91FF90EF90DF90CF900895CF93C0E014
:1001C0008C2F0E949200CF5FCE31D1F781E792E071
:1001D00090938900809388008CE08093810082E076
:1001E00080936F00CF910895789408951F920F9295
:1001F0000FB60F9211242F933F938F939F93AF933A
:10020000BF93CF93DF93EF93FF93E8E0F1E0DF013B
:1002100016962AED31E080819181009791F08281DC
:100220009381009759F48C918F5F8C938481958191
:10023000009739F001979383828303C001979383DA
:10024000828337961796E217F30729F7FF91EF910C
:10025000DF91CF91BF91AF919F918F913F912F915E
:100260000F900FBE0F901F9018952D9A08952D98FE
:1002700008952B9A08952B980895299A08952998FE
:1002800008958091DB0190910401891B8093DB012B
:1002900008959091DB0180910401890F8093DB0127
:1002A00008951092070110920601089580910101AE
:1002B000882339F4809102018093DB010E943D0183
:1002C0000895809103018093DB010E943501089518
:1002D0003091020120910301832F90E0821B91094C
:1002E0006091040170E00E942505009721F42530FB
:1002F00010F0231748F080EA809302018AE080938F
:10030000030185E0809304010895259A239A219A98
:1003100008950E943B010E9437010E943F01089509
:100320008091DB0190910301891739F590910001CB
:10033000992319F5909101019130F9F482E08093AD
:10034000010181E0809300010E9489018091DF0119
:100350000E9492008091DE010E9492008091DD0156
:100360000E9492008091DA010E9492008091E20145
:100370000E9492000E943501089590910201891710
:1003800021F580910001823001F5809101018130D9
:10039000E1F410920101809300010E948901809193
:1003A000DC010E9492008091E1010E949200809104
:1003B000DD010E9492008091E0010E9492008091F4
:1003C000E2010E9492000E943D0108958091000187
:1003D000882399F580910101813009F461C081E0A1
:1003E000809301010E94890185E391E060E070E063
:1003F00044E650E00E9453008093DE0189E391E0DF
:1004000060E070E044E650E00E9453008093DD011C
:1004100087E391E062E370E044E650E00E9453001D
:100420008093DA018BE391E062E370E044E650E010
:100430000E9453008093E2010895823089F58091F3
:100440000101813069F181E0809301010E948901FD
:100450008DE391E060E070E044E650E00E945300DC
:100460008093E10189E391E060E070E044E650E0D0
:100470000E9453008093DD018FE391E062E370E01E
:1004800044E650E00E9453008093E0018BE391E04A
:1004900062E370E044E650E00E9453008093E20182
:1004A00008958091DB0190910201891719F40E944F
:1004B0003D01089590910301891711F40E943501BF
:1004C00008951092C50083E38093C4001092C00089
:1004D00088E08093C10086E08093C2000895E0EC3C
:1004E000F0E0908195FFFDCF8093C6000895809144
:1004F0000601909107016AE070E00E941105862FC5
:1005000060930601709307010E946F020895809125
:10051000DB010E946F020895ECE7F0E080818064C7
:100520008083EAE7F0E08081876080838081806853
:1005300080830895ECE7F0E090818770987F982B96
:100540009083EAE7F0E0808180648083808186FD8B
:10055000FDCF80917800909179000895CF92DF923D
:10056000EF92FF920F931F93CF93DF9380E00E944F
:100570009A02682F70E080E090E00E94200420E062
:1005800030E040E85AE30E94AE04462F572F682F10
:10059000792FCB01BA0120E030E040EA50E40E941C
:1005A000AE04C62FD72F182F092F60910601709126
:1005B000070180E090E00E9420046B017C018C2FF9
:1005C0009D2FA12FB02FBC01CD0120E030E040E0F5
:1005D0005FE30E948F0320E030E048EC52E40E9489
:1005E000AE049B01AC01C701B6010E9490030E94BA
:1005F000F403DC01CB019093070180930601DF91A6
:10060000CF911F910F91FF90EF90DF90CF900895C1
:1006100080910101882361F41092000181E491E04E
:1006200060E070E042E350E00E9453008093DF01FD
:10063000089580910101823061F48093000189E482
:1006400091E060E070E042E350E00E94530080934C
:10065000DC01089580910601909107018631910592
:1006600018F00E94080308958531910510F40E9446
:10067000190308950E948C020E9485010E94610264
:100680000E94DE0088E691E060E070E041E050E02A
:100690000E94530086E591E065E070E040E050E0A4
:1006A0000E9453008EEA92E060E070E044E650E081
:1006B0000E94530087E792E068EE73E048EE53E053
:1006C0000E9453008AE293E068EE73E048EE53E044
:1006D0000E94530081E591E068EE73E048EE53E03C
:1006E0000E94530087E892E068EE73E042E350E036
:1006F0000E94530086EE91E068EE73E04AE050E01D
:100700000E94530080E991E068EE73E04AE050E017
:100710000E9453000E94F4000E94A700FDCF505891
:10072000BB27AA270ED0E0C0D1D030F0D6D020F021
:1007300031F49F3F11F41EF4C6C00EF4E095E7FBC0
:10074000BCC0E92FE2D080F3BA17620773078407B1
:10075000950718F071F49EF5FAC00EF4E0950B2E93
:10076000BA2FA02D0B01B90190010C01CA01A00103
:100770001124FF27591B99F0593F50F4503E68F15E
:100780001A16F040A22F232F342F4427585FF3CF9F
:10079000469537952795A795F0405395C9F77EF470
:1007A0001F16BA0B620B730B840BBAF09150A1F0B9
:1007B000FF0FBB1F661F771F881FC2F70EC0BA0F3F
:1007C000621F731F841F48F4879577956795B795C7
:1007D000F7959E3F08F0B3CF9395880F08F09927BF
:1007E000EE0F97958795089598D088F09F5790F0D1
:1007F000B92F9927B751A0F0D1F0660F771F881F46
:10080000991F1AF0BA95C9F712C0B13081F09FD084
:10081000B1E008959CC0672F782F8827B85F39F022
:10082000B93FCCF3869577956795B395D9F73EF4A4
:1008300090958095709561957F4F8F4F9F4F08954C
:10084000E89409C097FB3EF490958095709561956A
:100850007F4F8F4F9F4F9923A9F0F92F96E9BB2720
:100860009395F695879577956795B795F111F8CF9C
:10087000FAF4BB0F11F460FF1BC06F5F7F4F8F4F07
:100880009F4F16C0882311F096E911C0772321F0FD
:100890009EE8872F762F05C0662371F096E8862F95
:1008A00070E060E02AF09A95660F771F881FDAF7EC
:1008B000880F9695879597F9089597F99F6780E82F
:1008C00070E060E008959FEF80EC089500240A94A2
:1008D0001616170618060906089500240A9412161B
:1008E0001306140605060895092E0394000C11F44E
:1008F000882352F0BB0F40F4BF2B11F460FF04C0FB
:100900006F5F7F4F8F4F9F4F089557FD9058440F53
:10091000551F59F05F3F71F04795880F97FB991F5E
:1009200061F09F3F79F0879508951216130614061B
:10093000551FF2CF4695F1DF08C0161617061806A8
:10094000991FF1CF86957105610508940895E89483
:10095000BB2766277727CB0197F908950BD0C4CF23
:10096000B5DF28F0BADF18F0952309F0A6CFABCF9A
:100970001124EECFCADFA0F3959FD1F3950F50E07D
:10098000551F629FF001729FBB27F00DB11D639F41
:10099000AA27F00DB11DAA1F649F6627B00DA11DE7
:1009A000661F829F2227B00DA11D621F739FB00D8D
:1009B000A11D621F839FA00D611D221F749F3327FD
:1009C000A00D611D231F849F600D211D822F762F96
:1009D0006A2F11249F5750408AF0E1F088234AF093
:1009E000EE0FFF1FBB1F661F771F881F91505040DF
:1009F000A9F79E3F510570F060CFAACF5F3FECF39F
:100A0000983EDCF3869577956795B795F795E795CA
:100A10009F5FC1F7FE2B880F911D9695879597F9DB
:100A20000895AA1BBB1B51E107C0AA1FBB1FA61735
:100A3000B70710F0A61BB70B881F991F5A95A9F787
:100A400080959095BC01CD01089597FB092E07264E
:100A50000AD077FD04D0E5DF06D000201AF47095A7
:100A600061957F4F0895F6F7909581959F4F089572
:040A7000F894FFCF28
:060A74000102C83203007C
:00000001FF
