:100000000C9434000C9451000C9451000C94510049
:100010000C9451000C9451000C9451000C9451001C
:100020000C9451000C9451000C9451000C94F60067
:100030000C9451000C9451000C9451000C945100FC
:100040000C9451000C9451000C9451000C945100EC
:100050000C9451000C9451000C9451000C945100DC
:100060000C9451000C94510011241FBECFEFD8E026
:10007000DEBFCDBF11E0A0E0B1E0E8E1FFE002C0EB
:1000800005900D92A830B107D9F712E0A8E0B1E0D1
:1000900001C01D92A031B107E1F70E94C1040C9488
:1000A0008A070C9400000F931F93CF93DF93EC010A
:1000B000DB018A0180910D0190910E010097B1F052
:1000C000E4E1F1E021E030E0422FB901808191814B
:1000D000009741F02F5F3F4F37962F313105A1F741
:1000E000842F01C0822F8E3121F417C060E070E0B0
:1000F00040E0CB01880F991F880F991F880F991F27
:10010000861B970BFC01E35FFE4FD183C083B38353
:10011000A283158304831682842FDF91CF911F91D0
:100120000F91089590E0FC01EE0FFF1FEE0FFF1FEF
:10013000EE0FFF1FE81BF90BE35FFE4F11821082E9
:100140001382128215821482168280E00895CF9263
:10015000DF92EF92FF921F93CF93DF93C3E1D1E041
:100160000F2EFAEFEF2EFFEFFF2EF02DEC0EFD1EFF
:1001700010E08881882391F0D701ED91FC911197CF
:10018000309761F00995888181508883F7018481D7
:100190009581009719F4812F0E9492001F5F279686
:1001A00087E090E0E80EF91E1E3119F7DF91CF913C
:1001B0001F91FF90EF90DF90CF900895CF93C0E014
:1001C0008C2F0E949200CF5FCE31D1F781E792E071
:1001D00090938900809388008CE08093810082E076
:1001E00080936F00CF910895789408951F920F9295
:1001F0000FB60F9211242F933F938F939F93AF933A
:10020000BF93CF93DF93EF93FF93EDE0F1E0DF0136
:1002100016962FED31E080819181009791F08281D7
:100220009381009759F48C918F5F8C938481958191
:10023000009739F001979383828303C001979383DA
:10024000828337961796E217F30729F7FF91EF910C
:10025000DF91CF91BF91AF919F918F913F912F915E
:100260000F900FBE0F901F9018952B9A08952B9802
:100270000895809108028550809308020895809126
:1002800008028B5F80930802089510920C0110926F
:100290000B01089510920A01109209010895259A00
:1002A000239A219A08952D9A08952D980895299AB0
:1002B000089580910101882339F48091030180938E
:1002C00008020E945701089580910401809308025A
:1002D0000E9453010895299808950E9437010E94B1
:1002E00055010E946B0108951092C50083E380932D
:1002F000C4001092C00088E18093C10086E0809322
:10030000C2000895E0ECF0E0908195FFFDCF80936E
:10031000C6000895CF93DF93EC01888199812FEF78
:100320008F3F920749F022960E948201899199910C
:100330002FEF8F3F9207C1F7DF91CF910895809102
:10034000020190E00E948A010895E0ECF0E09081C3
:100350009923ECF708958091C000882324F48091BC
:10036000C60090E008958FEF9FEF08950F931F93BD
:10037000CF93DF93CDB7DEB728970FB6F894DEBFE3
:100380000FBECDBF8C019923CCF0BC01992314F48E
:1003900061507F4F672F770F770B882777FD809508
:1003A000982F0E9421060E945C060E94F305462FAA
:1003B000C80160E071E00E94770702C080E040E081
:1003C00021E030E03A8329834B831C828D831E8297
:1003D0008FEF9FEF98878F83CE0101960E948A014D
:1003E00028960FB6F894DEBF0FBECDBFDF91CF9138
:1003F0001F910F9108958091090190910A0165E084
:1004000070E00E946307862F6093090170930A01D0
:1004100090E00E94B6010895CF93DF9300D000D002
:1004200000D0CDB7DEB780589F4F2AF08F3F91059F
:1004300029F024F002C080E001C08FEF22E030E01C
:100440003A8329838B831C828FEF9FEF9E838D835A
:10045000CE0101960E948A0126960FB6F894DEBF5F
:100460000FBECDBFDF91CF91089580910B01909188
:100470000C0165E070E00E946307862F972F609360
:100480000B0170930C010E940C020895CF93DF932F
:10049000CDB7DEB728970FB6F894DEBF0FBECDBF3D
:1004A00023E030E03A8329831C821B82833008F0EA
:1004B00082E08D831E828FEF9FEF98878F83CE011E
:1004C00001960E948A0128960FB6F894DEBF0FBEEF
:1004D000CDBFDF91CF9108958091080290910401E2
:1004E0008917F1F4909100019923D1F482E080936F
:1004F000010181E0809300010E946D0180910C0256
:100500000E94920080910A020E94920080910F0244
:100510000E9492000E94530180E00E9446020895CA
:10052000909103018917E1F4809100018230C1F4B8
:100530001092010181E0809300010E946D01809181
:1005400009020E94920080910A020E94920080910A
:100550000F020E9492000E94570181E00E94460211
:10056000089580910101823079F5809100018130F8
:1005700059F582E08093000181E08093010182E0DF
:100580000E9446020E946D018FE391E060E070E0FE
:1005900042E350E00E9453008093090285E391E01A
:1005A00060E070E044E650E00E94530080930A024D
:1005B00087E391E062E370E044E650E00E9453007C
:1005C00080930F020E9457010895809101018823B2
:1005D00069F580910001813049F510920001809306
:1005E000010182E00E9446020E946D0189E391E0D0
:1005F00060E070E042E350E00E94530080930C0200
:1006000085E391E060E070E044E650E00E94530032
:1006100080930A0287E391E062E370E044E650E0F1
:100620000E94530080930F020E945301089580910D
:10063000090190910A012091060130E08217930789
:1006400018F00E94E50208952091070130E0281774
:10065000390710F00E94B102089580910B0190912A
:100660000C012091020130E08217930718F00E94DC
:10067000E50208952091050130E02817390710F0B0
:100680000E94B1020895E0EEF1E020E332E08FEF46
:100690009FEF81939193E217F307D9F70895209183
:1006A000E0013091E1019FEF2F3F390791F090E099
:1006B00040EE51E09F5F292F30E0F901EE0FFF1F60
:1006C000E40FF51F60817181EFEF6F3F7E0791F7B7
:1006D00002C020E030E0F901EE0FFF1FE052FE4FB4
:1006E000808311820895809108018B3729F00E9440
:1006F00043038BE7809308010E94AB012FEF8F3FEC
:10070000920709F4A0C00E944F030E94AB012FEF93
:100710008F3F9207C1F78091E0019091E101209114
:10072000E2013091E3014091E4015091E5018A300A
:10073000910581F42130310529F40E94B1020E9413
:10074000430308958FEF2F3F380709F47CC00E94C0
:10075000430308958B30910581F42130310529F44C
:100760000E94E5020E94430308958FEF2F3F380750
:1007700009F469C00E94430308958431910579F416
:100780008FEF2F3F380709F45EC02FEF4F3F52071E
:1007900009F459C0409303010E9443030895853131
:1007A000910579F48FEF2F3F380709F44CC02FEFF4
:1007B0004F3F520709F447C0409304010E9443038E
:1007C00008958E31910559F48FEF2F3F3807D9F1F5
:1007D00020583040209302010E94430308958F3136
:1007E000910559F48FEF2F3F380769F120583040B9
:1007F000209305010E94430308958032910569F416
:100800008FEF2F3F3807F9F02FEF4F3F5207D9F006
:10081000409306010E94430308958132910569F4D3
:100820008FEF2F3F380779F02FEF4F3F520759F0E6
:10083000409307010E94430308952FEF8F3F9207D3
:1008400011F00E9443030895ECE7F0E080818E7F71
:1008500080830895ECE7F0E08081816080830895D3
:10086000ECE7F0E0808180648083EAE7F0E080815B
:10087000876080838081806880830895ECE7F0E062
:1008800090818770987F982B9083EAE7F0E08081D1
:1008900080648083808186FDFDCF80917800909177
:1008A000790008950E942A0481E00E943E04BC0160
:1008B000769567957695679580E090E00E941F0693
:1008C00020E030E04FE753E40E948B0520E030E069
:1008D00048EC52E40E9400079B01AC0160E070E02C
:1008E00088EC92E40E9426050E94F305809109019C
:1008F00090910A01860F911D90930A01809309013E
:1009000008950E94240480E00E943E04BC0180E01F
:1009100090E00E941F0620E030E040E85AE30E9489
:100920000007462F572F682F792FCB01BA0120E0FF
:1009300030E040EA50E40E940007462F572F682F0E
:10094000792FCB01BA0120E030E040E05FE30E9464
:10095000260520E030E048EC52E40E9400070E94A7
:10096000F30580910B0190910C01860F911D9093DE
:100970000C0180930B010895809108020E9482016E
:1009800008950E9430040E944F010E9474010E9449
:10099000DE0089E591E064EF71E040E050E00E9404
:1009A000530083E793E069E170E042E350E00E9486
:1009B000530081E894E060E070E048EC50E00E9471
:1009C000530082E594E064E670E048EC50E00E9459
:1009D000530085E392E069EE73E048EE53E00E9435
:1009E00053008BEF91E06DE474E048EE53E00E9419
:1009F00053008DE293E06AEE73E048EE53E00E940C
:100A0000530087E193E06EE474E048EE53E00E9407
:100A1000530085E491E06BEE73E048EE53E00E94F2
:100A200053008AE491E06FE474E048EE53E00E94E2
:100A300053008CE692E06CEE73E041E050E00E94DF
:100A400053000E94F4000E94A700FDCF5058BB271E
:100A5000AA270ED084C175D130F07AD120F031F4BC
:100A60009F3F11F41EF46AC10EF4E095E7FB37C115
:100A7000E92F86D180F3BA176207730784079507B9
:100A800018F071F49EF5B5C10EF4E0950B2EBA2F57
:100A9000A02D0B01B90190010C01CA01A001112484
:100AA000FF27591B99F0593F50F4503E68F11A1630
:100AB000F040A22F232F342F4427585FF3CF4695C1
:100AC00037952795A795F0405395C9F77EF41F16E3
:100AD000BA0B620B730B840BBAF09150A1F0FF0FAD
:100AE000BB1F661F771F881FC2F70EC0BA0F621F99
:100AF000731F841F48F4879577956795B795F79589
:100B00009E3F08F0B3CF9395880F08F09927EE0F1A
:100B10009795879508950CD022C11AD140F011D134
:100B200030F021F45F3F19F0DAC0511163C106C102
:100B300027D198F39923C9F35523B1F3951B550B8E
:100B4000BB27AA2762177307840738F09F5F5F4FA0
:100B5000220F331F441FAA1FA9F333D00E2E3AF0E1
:100B6000E0E830D091505040E695001CCAF729D0FB
:100B7000FE2F27D0660F771F881FBB1F261737074A
:100B80004807AB07B0E809F0BB0B802DBF01FF277A
:100B900093585F4F2AF09E3F510568F0A0C02AC1CC
:100BA0005F3FECF3983EDCF3869577956795B795B4
:100BB000F7959F5FC9F7880F911D9695879597F9CF
:100BC0000895E1E0660F771F881FBB1F6217730748
:100BD0008407BA0720F0621B730B840BBA0BEE1F5D
:100BE00088F7E0950895D4D088F09F5790F0B92FFA
:100BF0009927B751A0F0D1F0660F771F881F991F72
:100C00001AF0BA95C9F712C0B13081F0F2D0B1E054
:100C10000895EFC0672F782F8827B85F39F0B93F64
:100C2000CCF3869577956795B395D9F73EF4909573
:100C30008095709561957F4F8F4F9F4F0895E894F1
:100C400009C097FB3EF490958095709561957F4F14
:100C50008F4F9F4F9923A9F0F92F96E9BB279395C2
:100C6000F695879577956795B795F111F8CFFAF4D2
:100C7000BB0F11F460FF1BC06F5F7F4F8F4F9F4F03
:100C800016C0882311F096E911C0772321F09EE861
:100C9000872F762F05C0662371F096E8862F70E0C7
:100CA00060E02AF09A95660F771F881FDAF7880FA1
:100CB0009695879597F9089585D080F09F3740F4F1
:100CC00091110EF097C060E070E080E89FEB08950E
:100CD00026F41B16611D711D811D07C021C097F9E7
:100CE0009F6780E870E060E00895882371F47723BF
:100CF00021F09850872B762F07C0662311F499278F
:100D00000DC09051862B70E060E02AF09A95660F36
:100D1000771F881FDAF7880F9695879597F90895BA
:100D20009F3F31F0915020F4879577956795B7955F
:100D3000880F911D9695879597F908959FEF80EC00
:100D4000089500240A941616170618060906089531
:100D500000240A9412161306140605060895092E97
:100D60000394000C11F4882352F0BB0F40F4BF2B06
:100D700011F460FF04C06F5F7F4F8F4F9F4F089546
:100D800057FD9058440F551F59F05F3F71F047953C
:100D9000880F97FB991F61F09F3F79F08795089521
:100DA000121613061406551FF2CF4695F1DF08C040
:100DB000161617061806991FF1CF8695710561055D
:100DC00008940895E5DFA0F0BEE7B91788F4BB27C3
:100DD0009F3860F41616B11D672F782F8827985F0B
:100DE000F7CF869577956795B11D93959639C8F39A
:100DF0000895E894BB2766277727CB0197F90895D4
:100E00000BD0ADCF9EDF28F0A3DF18F0952309F0BB
:100E100066CF94CF1124EECFB3DFA0F3959FD1F32B
:100E2000950F50E0551F629FF001729FBB27F00D98
:100E3000B11D639FAA27F00DB11DAA1F649F6627ED
:100E4000B00DA11D661F829F2227B00DA11D621F3C
:100E5000739FB00DA11D621F839FA00D611D221FF6
:100E6000749F3327A00D611D231F849F600D211DDA
:100E7000822F762F6A2F11249F5750408AF0E1F07D
:100E800088234AF0EE0FFF1FBB1F661F771F881FC6
:100E900091505040A9F79E3F510570F020CFAACF46
:100EA0005F3FECF3983EDCF3869577956795B795B1
:100EB000F795E7959F5FC1F7FE2B880F911D9695DB
:100EC000879597F90895AA1BBB1B51E107C0AA1F7C
:100ED000BB1FA617B70710F0A61BB70B881F991FDB
:100EE0005A95A9F780959095BC01CD01089597FB7F
:100EF000092E07260AD077FD04D0E5DF06D00020B2
:100F00001AF4709561957F4F0895F6F79095819545
:080F10009F4F0895F894FFCFF4
:080F1800010216A00A14501496
:00000001FF
