S01200007465737473656E736F722E73726563B8
S11300000C9434000C9451000C9451000C94510045
S11300100C9451000C9451000C9451000C94510018
S11300200C9451000C9451000C9451000C94F60063
S11300300C9451000C9451000C9451000C945100F8
S11300400C9451000C9451000C9451000C945100E8
S11300500C9451000C9451000C9451000C945100D8
S11300600C9451000C94510011241FBECFEFD8E022
S1130070DEBFCDBF11E0A0E0B1E0EAE7FFE002C0DF
S113008005900D92AA30B107D9F712E0AAE0B1E0C9
S113009001C01D92A231B107E1F70E94EA040C9459
S11300A0BB070C9400000F931F93CF93DF93EC01D5
S11300B0DB018A0180910F01909110010097B1F04A
S11300C0E6E1F1E021E030E0422FB9018081918145
S11300D0009741F02F5F3F4F37962F313105A1F73D
S11300E0842F01C0822F8E3121F417C060E070E0AC
S11300F040E0CB01880F991F880F991F880F991F23
S1130100861B970BFC01E15FFE4FD183C083B38351
S1130110A283158304831682842FDF91CF911F91CC
S11301200F91089590E0FC01EE0FFF1FEE0FFF1FEB
S1130130EE0FFF1FE81BF90BE15FFE4F11821082E7
S11301401382128215821482168280E00895CF925F
S1130150DF92EF92FF921F93CF93DF93C5E1D1E03B
S11301600F2EFAEFEF2EFFEFFF2EF02DEC0EFD1EFB
S113017010E08881882391F0D701ED91FC911197CB
S1130180309761F00995888181508883F7018481D3
S11301909581009719F4812F0E9492001F5F279682
S11301A087E090E0E80EF91E1E3119F7DF91CF9138
S11301B01F91FF90EF90DF90CF900895CF93C0E010
S11301C08C2F0E949200CF5FCE31D1F781E792E06D
S11301D090938900809388008CE08093810082E072
S11301E080936F00CF910895789408951F920F9291
S11301F00FB60F9211242F933F938F939F93AF9336
S1130200BF93CF93DF93EF93FF93EFE0F1E0DF0130
S1130210169621EE31E080819181009791F08281E0
S11302209381009759F48C918F5F8C93848195818D
S1130230009739F001979383828303C001979383D6
S1130240828337961796E217F30729F7FF91EF9108
S1130250DF91CF91BF91AF919F918F913F912F915A
S11302600F900FBE0F901F9018952B9A08952B98FE
S1130270089580910A0290910801891B80930A02D3
S1130280089590910A0280910801890F80930A02CF
S1130290089510920E0110920D01089510920C0110
S11302A010920B0108953091020120910301832FD4
S11302B090E0821B91096091080170E00E94A807F8
S11302C0009721F4253010F0231748F080EA80933A
S11302D002018AE08093030185E080930801089578
S11302E0259A239A219A08952D9A08952D98089570
S11302F0299A089580910101882339F4809102019B
S113030080930A020E9478010895809103018093EA
S11303100A020E9474010895299808950E943701E1
S11303200E9476010E948C0108951092C50083E317
S11303308093C4001092C00088E18093C10086E0DD
S11303408093C2000895E0ECF0E0908195FFFDCF2A
S11303508093C6000895CF93DF93EC01888199813F
S11303602FEF8F3F920749F022960E94A3018991B3
S113037099912FEF8F3F9207C1F7DF91CF910895A5
S1130380E0ECF0E090819923ECF708958091C000AF
S1130390882324F48091C60090E008958FEF9FEFA6
S11303A008950F931F93CF93DF93CDB7DEB72897AC
S11303B00FB6F894DEBF0FBECDBF8C019923CCF0ED
S11303C0BC01992314F461507F4F672F770F770B8B
S11303D0882777FD8095982F0E9452060E948D06EB
S11303E00E942406462FC80160E071E00E94A8071D
S11303F002C080E040E021E030E03A8329834B836F
S11304001C828D831E828FEF9FEF98878F83CE018E
S113041001960E94AB0128960FB6F894DEBF0FBE7A
S1130420CDBFDF91CF911F910F91089580910B0162
S113043090910C0165E070E00E949407862F609310
S11304400B0170930C0190E00E94D1010895CF93A9
S1130450DF9300D000D000D0CDB7DEB780589F4FD7
S11304602AF08F3F910529F024F002C080E001C0FA
S11304708FEF22E030E03A8329838B831C828FEF55
S11304809FEF9E838D83CE0101960E94AB01269639
S11304900FB6F894DEBF0FBECDBFDF91CF910895A4
S11304A080910D0190910E0165E070E00E94940727
S11304B0862F972F60930D0170930E010E942702DF
S11304C00895CF93DF93CDB7DEB728970FB6F8948E
S11304D0DEBF0FBECDBF23E030E03A8329831C8208
S11304E01B82833008F082E08D831E828FEF9FEFA2
S11304F098878F83CE0101960E94AB0128960FB690
S1130500F894DEBF0FBECDBFDF91CF9108958091E7
S11305100001882369F590910101913049F181E04E
S11305208093010182E00E9461020E948E0189E3AE
S113053091E060E070E042E350E00E945300809359
S11305400E0285E391E060E070E044E650E00E9432
S1130550530080930C0287E391E062E370E044E689
S113056050E00E945300809311020E9474012EC037
S1130570823061F580910101813041F181E0809305
S1130580010182E00E9461020E948E0181E491E0F7
S113059060E070E042E350E00E94530080930B025D
S11305A085E391E060E070E044E650E00E9453008F
S11305B080930C0287E391E062E370E044E650E04C
S11305C00E945300809311020E94780180910A02D4
S11305D090910301891711F5909100019923F1F489
S11305E0909101019130D1F482E08093010181E086
S11305F0809300010E948E0180910E020E9492005D
S113060080910C020E949200809111020E9492003B
S11306100E94740180E00E94610208959091020199
S11306208917F9F4809100018230D9F48091010195
S11306308130B9F410920101809300010E948E016F
S113064080910B020E94920080910C020E94920001
S1130650809111020E9492000E94780181E00E9420
S113066061020895E2EEF1E022E332E08FEF9FEFC2
S113067081939193E217F307D9F708952091E2014A
S11306803091E3019FEF2F3F390791F090E042EE64
S113069051E09F5F292F30E0F901EE0FFF1FE40FB7
S11306A0F51F60817181EFEF6F3F7E0791F702C004
S11306B020E030E0F901EE0FFF1FEE51FE4F808382
S11306C01182089580910A018B3729F00E94320328
S11306D08BE780930A010E94C6012FEF8F3F920798
S11306E041F00E943E030E94C6012FEF8F3F920704
S11306F0C1F78091E2019091E3012091E4013091EE
S1130700E5014091E6015091E7018A30910589F4B1
S11307102130310531F482E0809300010E943203DC
S113072008958FEF2F3F380709F47CC00E943203ED
S113073008958B30910581F42130310529F410920C
S113074000010E94320308958FEF2F3F380709F408
S113075069C00E94320308958431910579F48FEFC2
S11307602F3F380709F45EC02FEF4F3F520709F4BB
S113077059C0409302010E943203089585319105C6
S113078079F48FEF2F3F380709F44CC02FEF4F3F18
S1130790520709F447C0409303010E9432030895AD
S11307A08E31910559F48FEF2F3F3807D9F1205836
S11307B03040209304010E94320308958F31910543
S11307C059F48FEF2F3F380769F1205830402093B8
S11307D005010E94320308958032910569F48FEF78
S11307E02F3F3807F9F02FEF4F3F5207D9F04093CE
S11307F006010E94320308958132910569F48FEF56
S11308002F3F380779F02FEF4F3F520759F04093AD
S113081007010E94320308952FEF8F3F920711F0D2
S11308200E9432030895ECE7F0E080818E7F80839C
S11308300895ECE7F0E08081816080830895ECE71F
S1130840F0E0808180648083EAE7F0E08081876063
S113085080838081806880830895ECE7F0E0908154
S11308608770987F982B9083EAE7F0E0808180641A
S11308708083808186FDFDCF8091780090917900FE
S113088008950E94190481E00E942D04BC0176950C
S113089067957695679580E090E00E94500620E089
S11308A030E04FE753E40E94BC0520E030E048EC20
S11308B052E40E9431079B01AC0160E070E088ECD7
S11308C092E40E9457050E94240680910B019091A6
S11308D00C01860F911D90930C0180930B010895D8
S11308E00E94130480E00E942D04BC0180E090E08B
S11308F00E94500620E030E040E85AE30E943107AD
S1130900462F572F682F792FCB01BA0120E030E012
S113091040EA50E40E943107462F572F682F792F61
S1130920CB01BA0120E030E040E05FE30E945705CC
S113093020E030E048EC52E40E9431070E94240693
S113094080910D0190910E01860F911D90930E01DF
S113095080930D01089580910101882311F4109270
S11309600001089580910101823011F48093000107
S1130970089580910B0190910C012091060130E0C3
S11309808217930718F00E94AB0408952091070181
S113099030E02817390710F00E94B20408958091BE
S11309A00D0190910E012091040130E0821793070C
S11309B018F00E94AB0408952091050130E0281737
S11309C0390710F00E94B204089580910A020E942F
S11309D0A30108950E941F040E9470010E949501C2
S11309E00E94DE0083E591E060E070E041E050E0C9
S11309F00E9453008AE791E064EF71E040E050E028
S1130A000E94530082E693E060E070E042E350E02D
S1130A100E94530080E794E060E070E048EC50E00E
S1130A200E94530081E494E064E670E048EC50E0F6
S1130A300E94530080E592E068EE73E048EE53E0D4
S1130A400E94530086E192E06CE474E048EE53E0C7
S1130A500E9453008FEC94E069EE73E048EE53E09B
S1130A600E94530089EB94E06DE474E048EE53E097
S1130A700E94530089E491E06AEE73E048EE53E08B
S1130A800E9453008EE491E06EE474E048EE53E07B
S1130A900E94530087E892E068EE73E04AE050E079
S1130AA00E9453000E94F4000E94A700FDCF5058FA
S1130AB0BB27AA270ED084C175D130F07AD120F09B
S1130AC031F49F3F11F41EF46AC10EF4E095E7FB84
S1130AD037C1E92F86D180F3BA17620773078407F9
S1130AE0950718F071F49EF5B5C10EF4E0950B2E40
S1130AF0BA2FA02D0B01B90190010C01CA01A0016C
S1130B001124FF27591B99F0593F50F4503E68F1C6
S1130B101A16F040A22F232F342F4427585FF3CF07
S1130B20469537952795A795F0405395C9F77EF4D8
S1130B301F16BA0B620B730B840BBAF09150A1F021
S1130B40FF0FBB1F661F771F881FC2F70EC0BA0FA7
S1130B50621F731F841F48F4879577956795B7952F
S1130B60F7959E3F08F0B3CF9395880F08F0992727
S1130B70EE0F9795879508950CD022C11AD140F0B5
S1130B8011D130F021F45F3F19F0DAC0511163C183
S1130B9006C127D198F39923C9F35523B1F3951BC3
S1130BA0550BBB27AA2762177307840738F09F5F8A
S1130BB05F4F220F331F441FAA1FA9F333D00E2EF9
S1130BC03AF0E0E830D091505040E695001CCAF766
S1130BD029D0FE2F27D0660F771F881FBB1F26172B
S1130BE037074807AB07B0E809F0BB0B802DBF01FE
S1130BF0FF2793585F4F2AF09E3F510568F0A0C02D
S1130C002AC15F3FECF3983EDCF3869577956795B0
S1130C10B795F7959F5FC9F7880F911D96958795AE
S1130C2097F90895E1E0660F771F881FBB1F6217CD
S1130C3073078407BA0720F0621B730B840BBA0B8B
S1130C40EE1F88F7E0950895D4D088F09F5790F070
S1130C50B92F9927B751A0F0D1F0660F771F881FDD
S1130C60991F1AF0BA95C9F712C0B13081F0F2D0C9
S1130C70B1E00895EFC0672F782F8827B85F39F067
S1130C80B93FCCF3869577956795B395D9F73EF43C
S1130C9090958095709561957F4F8F4F9F4F0895E4
S1130CA0E89409C097FB3EF4909580957095619502
S1130CB07F4F8F4F9F4F9923A9F0F92F96E9BB27B8
S1130CC09395F695879577956795B795F111F8CF34
S1130CD0FAF4BB0F11F460FF1BC06F5F7F4F8F4F9F
S1130CE09F4F16C0882311F096E911C0772321F095
S1130CF09EE8872F762F05C0662371F096E8862F2D
S1130D0070E060E02AF09A95660F771F881FDAF783
S1130D10880F9695879597F9089585D080F09F3729
S1130D2040F491110EF097C060E070E080E89FEB12
S1130D30089526F41B16611D711D811D07C021C075
S1130D4097F99F6780E870E060E00895882371F464
S1130D50772321F09850872B762F07C0662311F450
S1130D6099270DC09051862B70E060E02AF09A9587
S1130D70660F771F881FDAF7880F9695879597F97E
S1130D8008959F3F31F0915020F4879577956795AA
S1130D90B795880F911D9695879597F908959FEFBC
S1130DA080EC089500240A941616170618060906FE
S1130DB0089500240A9412161306140605060895CD
S1130DC0092E0394000C11F4882352F0BB0F40F455
S1130DD0BF2B11F460FF04C06F5F7F4F8F4F9F4F95
S1130DE0089557FD9058440F551F59F05F3F71F017
S1130DF04795880F97FB991F61F09F3F79F087957E
S1130E000895121613061406551FF2CF4695F1DF06
S1130E1008C0161617061806991FF1CF8695710596
S1130E20610508940895E5DFA0F0BEE7B91788F4DA
S1130E30BB279F3860F41616B11D672F782F8827BB
S1130E40985FF7CF869577956795B11D93959639F9
S1130E50C8F30895E894BB2766277727CB0197F951
S1130E6008950BD0ADCF9EDF28F0A3DF18F09523B3
S1130E7009F066CF94CF1124EECFB3DFA0F3959F92
S1130E80D1F3950F50E0551F629FF001729FBB276D
S1130E90F00DB11D639FAA27F00DB11DAA1F649F19
S1130EA06627B00DA11D661F829F2227B00DA11DCC
S1130EB0621F739FB00DA11D621F839FA00D611D52
S1130EC0221F749F3327A00D611D231F849F600D73
S1130ED0211D822F762F6A2F11249F5750408AF0AC
S1130EE0E1F088234AF0EE0FFF1FBB1F661F771F38
S1130EF0881F91505040A9F79E3F510570F020CFB4
S1130F00AACF5F3FECF3983EDCF38695779567951F
S1130F10B795F795E7959F5FC1F7FE2B880F911D55
S1130F209695879597F90895AA1BBB1B51E107C0B5
S1130F30AA1FBB1FA617B70710F0A61BB70B881F65
S1130F40991F5A95A9F780959095BC01CD010895F4
S1130F5097FB092E07260AD077FD04D0E5DF06D0DB
S1130F6000201AF4709561957F4F0895F6F79095D7
S10D0F7081959F4F0895F894FFCF78
S10D0F7A0102A00A16145014050029
S9030000FC
