:100000000C9434000C9451000C9451000C94510049
:100010000C9451000C9451000C9451000C9451001C
:100020000C9451000C9451000C9451000C94F60067
:100030000C9451000C9451000C9451000C945100FC
:100040000C9451000C9451000C9451000C945100EC
:100050000C9451000C9451000C9451000C945100DC
:100060000C9451000C94510011241FBECFEFD8E026
:10007000DEBFCDBF11E0A0E0B1E0E2E0FBE002C0F6
:1000800005900D92A030B107D9F711E0A0E0B1E0E2
:1000900001C01D92A73BB107E1F70E9460030C94D9
:1000A0007F050C9400000F931F93CF93DF93EC0117
:1000B000DB018A0180910301909104010097B1F066
:1000C000EAE0F1E021E030E0422FB9018081918146
:1000D000009741F02F5F3F4F379625313105A1F74B
:1000E000842F01C0822F843121F417C060E070E0BA
:1000F00040E0CB01880F991F880F991F880F991F27
:10010000861B970BFC01ED5FFE4FD183C083B38349
:10011000A283158304831682842FDF91CF911F91D0
:100120000F91089590E0FC01EE0FFF1FEE0FFF1FEF
:10013000EE0FFF1FE81BF90BED5FFE4F11821082DF
:100140001382128215821482168280E00895CF9263
:10015000DF92EF92FF921F93CF93DF93C9E0D1E03C
:100160000F2EFAEFEF2EFFEFFF2EF02DEC0EFD1EFF
:1001700010E08881882391F0D701ED91FC911197CF
:10018000309761F00995888181508883F7018481D7
:100190009581009719F4812F0E9492001F5F279686
:1001A00087E090E0E80EF91E143119F7DF91CF9146
:1001B0001F91FF90EF90DF90CF900895CF93C0E014
:1001C0008C2F0E949200CF5FC431D1F781E792E07B
:1001D00090938900809388008CE08093810082E076
:1001E00080936F00CF910895789408951F920F9295
:1001F0000FB60F9211242F933F938F939F93AF933A
:10020000BF93CF93DF93EF93FF93E3E0F1E0DF0140
:1002100016962FE831E080819181009791F08281DC
:100220009381009759F48C918F5F8C938481958191
:10023000009739F001979383828303C001979383DA
:10024000828337961796E217F30729F7FF91EF910C
:10025000DF91CF91BF91AF919F918F913F912F915E
:100260000F900FBE0F901F9018951092C50083E35A
:100270008093C4001092C00088E18093C10086E0A2
:100280008093C2000895E0ECF0E0908195FFFDCFEF
:100290008093C6000895CF93DF93EC018881998104
:1002A0002FEF8F3F920749F022960E9443018991D8
:1002B00099912FEF8F3F9207C1F7DF91CF9108956A
:1002C000E0ECF0E090819923ECF708958091C00074
:1002D000882324F48091C60090E008958FEF9FEF6B
:1002E00008950F931F93CF93DF93CDB7DEB7289771
:1002F0000FB6F894DEBF0FBECDBF8C019923CCF0B2
:10030000BC01992314F461507F4F672F770F770B4F
:10031000882777FD8095982F0E9416040E9451042B
:100320000E94E803462FC80160E071E00E946C055E
:1003300002C080E040E021E030E03A8329834B8333
:100340001C828D831E828FEF9FEF98878F83CE0153
:1003500001960E944B0128960FB6F894DEBF0FBE9F
:10036000CDBFDF91CF911F910F910895CF93DF9370
:1003700000D000D000D0CDB7DEB780589F4F2AF014
:100380008F3F910529F024F002C080E001C08FEF7B
:1003900022E030E03A8329838B831C828FEF9FEF2A
:1003A0009E838D83CE0101960E944B0126960FB647
:1003B000F894DEBF0FBECDBFDF91CF91089580913D
:1003C00001019091020166E070E00E945805862FBD
:1003D000972F60930101709302010E94B601109261
:1003E0000201109201010895CF93DF93CDB7DEB7DC
:1003F00028970FB6F894DEBF0FBECDBF23E030E0E4
:100400003A8329831C821B82833008F082E08D832B
:100410001E828FEF9FEF98878F83CE0101960E94F7
:100420004B0128960FB6F894DEBF0FBECDBFDF910B
:10043000CF910895EFE8F1E02FED31E08FEF9FEFDE
:1004400081939193E217F307D9F7089520918F01D3
:10045000309190019FEF2F3F390791F090E04FE8E6
:1004600051E09F5F292F30E0F901EE0FFF1FE40FED
:10047000F51F60817181EFEF6F3F7E0791F702C03A
:1004800020E030E0F901EE0FFF1FE157FE4F8083BF
:1004900011820895809100018B3729F00E941A0281
:1004A0008BE7809300010E9466012FEF8F3F920738
:1004B00041F00E9426020E9466012FEF8F3F9207B3
:1004C000C1F780918F01909190012091910130911D
:1004D000920140919301509194018A30910571F4F9
:1004E0002130310519F40E941A0208958FEF2F3F31
:1004F000380709F468C00E941A0208958B309105EC
:1005000071F42130310519F40E941A0208958FEF19
:100510002F3F380709F457C00E941A02089584310A
:10052000910569F48FEF2F3F380709F44CC02FEF86
:100530004F3F520709F447C00E941A0208958531BF
:10054000910559F48FEF2F3F3807E9F12FEF4F3F17
:100550005207C9F10E941A0208958E31910539F4AB
:100560008FEF2F3F380779F10E941A0208958F31DB
:10057000910539F48FEF2F3F380729F10E941A02B5
:1005800008958032910559F48FEF2F3F3807D9F045
:100590002FEF4F3F5207B9F00E941A02089581329F
:1005A000910559F48FEF2F3F380769F02FEF4F3F38
:1005B000520749F00E941A0208952FEF8F3F9207C9
:1005C00011F00E941A020895ECE7F0E08081806447
:1005D0008083EAE7F0E080818760808380818068A3
:1005E00080830895ECE7F0E090818770987F982BE6
:1005F0009083EAE7F0E0808180648083808186FDDB
:10060000FDCF80917800909179000895CF92DF928C
:10061000EF92FF920F931F93CF93DF9380E00E949E
:10062000F202682F70E080E090E00E94140420E065
:1006300030E040E85AE30E94F504462F572F682F18
:10064000792FCB01BA0120E030E040EA50E40E946B
:10065000F504C62FD72F182F092F60910101709133
:10066000020180E090E00E9414046B017C018C2F59
:100670009D2FA12FB02FBC01CD0120E030E040E044
:100680005FE30E94830320E030E048EC52E40E94E4
:10069000F5049B01AC01C701B6010E9484030E94CE
:1006A000E803DC01CB019093020180930101DF910B
:1006B000CF911F910F91FF90EF90DF90CF90089511
:1006C0000E94E4020E9435010E94DE008AE492E06A
:1006D00060E070E044E650E00E94530086E093E062
:1006E00060E070E048EE53E00E9453008FED91E02F
:1006F00068EE73E040E757E10E9453000E94F40067
:100700000E94A700FDCF5058BB27AA270ED01CC1BE
:100710000DD130F012D120F031F49F3F11F41EF4CE
:1007200002C10EF4E095E7FBCFC0E92F1ED180F3A4
:10073000BA17620773078407950718F071F49EF5DE
:100740004DC10EF4E0950B2EBA2FA02D0B01B9016F
:1007500090010C01CA01A0011124FF27591B99F037
:10076000593F50F4503E68F11A16F040A22F232F43
:10077000342F4427585FF3CF469537952795A79593
:10078000F0405395C9F77EF41F16BA0B620B730B3A
:10079000840BBAF09150A1F0FF0FBB1F661F771FAB
:1007A000881FC2F70EC0BA0F621F731F841F48F460
:1007B000879577956795B795F7959E3F08F0B3CFE6
:1007C0009395880F08F09927EE0F979587950895D0
:1007D000D4D088F09F5790F0B92F9927B751A0F047
:1007E000D1F0660F771F881F991F1AF0BA95C9F7C5
:1007F00012C0B13081F0F2D0B1E00895EFC0672FA0
:10080000782F8827B85F39F0B93FCCF38695779574
:100810006795B395D9F73EF490958095709561955D
:100820007F4F8F4F9F4F0895E89409C097FB3EF488
:1008300090958095709561957F4F8F4F9F4F99232D
:10084000A9F0F92F96E9BB279395F69587957795AB
:100850006795B795F111F8CFFAF4BB0F11F460FF6B
:100860001BC06F5F7F4F8F4F9F4F16C0882311F0C3
:1008700096E911C0772321F09EE8872F762F05C0D7
:10088000662371F096E8862F70E060E02AF09A9572
:10089000660F771F881FDAF7880F9695879597F967
:1008A000089585D080F09F3740F491110EF097C0E5
:1008B00060E070E080E89FEB089526F41B16611D50
:1008C000711D811D07C021C097F99F6780E870E006
:1008D00060E00895882371F4772321F09850872BE6
:1008E000762F07C0662311F499270DC09051862BEF
:1008F00070E060E02AF09A95660F771F881FDAF79C
:10090000880F9695879597F908959F3F31F09150FC
:1009100020F4879577956795B795880F911D9695E3
:10092000879597F908959FEF80EC089500240A9425
:100930001616170618060906089500240A941216BA
:100940001306140605060895092E0394000C11F4ED
:10095000882352F0BB0F40F4BF2B11F460FF04C09A
:100960006F5F7F4F8F4F9F4F089557FD9058440FF3
:10097000551F59F05F3F71F04795880F97FB991FFE
:1009800061F09F3F79F087950895121613061406BB
:10099000551FF2CF4695F1DF08C016161706180648
:1009A000991FF1CF86957105610508940895E5DFDB
:1009B000A0F0BEE7B91788F4BB279F3860F416167D
:1009C000B11D672F782F8827985FF7CF8695779589
:1009D0006795B11D93959639C8F30895E894BB27A0
:1009E00066277727CB0197F908950BD0ADCF9EDF0F
:1009F00028F0A3DF18F0952309F066CF94CF1124D7
:100A0000EECFB3DFA0F3959FD1F3950F50E0551FC4
:100A1000629FF001729FBB27F00DB11D639FAA2753
:100A2000F00DB11DAA1F649F6627B00DA11D661FA2
:100A3000829F2227B00DA11D621F739FB00DA11DC3
:100A4000621F839FA00D611D221F749F3327A00D7D
:100A5000611D231F849F600D211D822F762F6A2F19
:100A600011249F5750408AF0E1F088234AF0EE0F9E
:100A7000FF1FBB1F661F771F881F91505040A9F7AB
:100A80009E3F510570F020CFAACF5F3FECF3983E18
:100A9000DCF3869577956795B795F795E7959F5F12
:100AA000C1F7FE2B880F911D9695879597F90895AC
:100AB000AA1BBB1B51E107C0AA1FBB1FA617B70784
:100AC00010F0A61BB70B881F991F5A95A9F78095A0
:100AD0009095BC01CD01089597FB092E07260AD0F9
:100AE00077FD04D0E5DF06D000201AF470956195FB
:100AF0007F4F0895F6F7909581959F4F0895F8944C
:020B0000FFCF25
:00000001FF
