S012000074656D7073656E736F722E73726563C2
S11300000C9434000C9451000C9451000C94510045
S11300100C9451000C9451000C9451000C94510018
S11300200C9451000C9451000C9451000C94F60063
S11300300C9451000C9451000C9451000C945100F8
S11300400C9451000C9451000C9451000C945100E8
S11300500C9451000C9451000C9451000C945100D8
S11300600C9451000C94510011241FBECFEFD8E022
S1130070DEBFCDBF11E0A0E0B1E0ECE1F7E002C0EB
S113008005900D92A030B107D9F711E0A0E0B1E0DE
S113009001C01D92AE38B107E1F70E94DB010C9458
S11300A08C030C9400000F931F93CF93DF93EC0108
S11300B0DB018A0180910201909103010097B1F064
S11300C0E9E0F1E021E030E0422FB9018081918143
S11300D0009741F02F5F3F4F379625313105A1F747
S11300E0842F01C0822F843121F417C060E070E0B6
S11300F040E0CB01880F991F880F991F880F991F23
S1130100861B970BFC01EE5FFE4FD183C083B38344
S1130110A283158304831682842FDF91CF911F91CC
S11301200F91089590E0FC01EE0FFF1FEE0FFF1FEB
S1130130EE0FFF1FE81BF90BEE5FFE4F11821082DA
S11301401382128215821482168280E00895CF925F
S1130150DF92EF92FF921F93CF93DF93C8E0D1E039
S11301600F2EFAEFEF2EFFEFFF2EF02DEC0EFD1EFB
S113017010E08881882391F0D701ED91FC911197CB
S1130180309761F00995888181508883F7018481D3
S11301909581009719F4812F0E9492001F5F279682
S11301A087E090E0E80EF91E143119F7DF91CF9142
S11301B01F91FF90EF90DF90CF900895CF93C0E010
S11301C08C2F0E949200CF5FC431D1F781E792E077
S11301D090938900809388008CE08093810082E072
S11301E080936F00CF910895789408951F920F9291
S11301F00FB60F9211242F933F938F939F93AF9336
S1130200BF93CF93DF93EF93FF93E2E0F1E0DF013D
S113021016962EE831E080819181009791F08281D9
S11302209381009759F48C918F5F8C93848195818D
S1130230009739F001979383828303C001979383D6
S1130240828337961796E217F30729F7FF91EF9108
S1130250DF91CF91BF91AF919F918F913F912F915A
S11302600F900FBE0F901F9018951092C50083E356
S11302708093C4001092C00088E08093C10086E09F
S11302808093C2000895E0ECF0E0908195FFFDCFEB
S11302908093C600089580910001909101016AE065
S11302A070E00E947803862F60930001709301012F
S11302B00E94430110920101109200010895ECE79D
S11302C0F0E0808180648083EAE7F0E080818760E9
S11302D080838081806880830895ECE7F0E09081DA
S11302E08770987F982B9083EAE7F0E080818064A0
S11302F08083808186FDFDCF809178009091790084
S11303000895CF92DF92EF92FF920F931F93CF93B2
S1130310DF9380E00E946D01682F70E080E090E040
S11303200E94870220E030E040E85AE30E9415036F
S1130330462F572F682F792FCB01BA0120E030E0E8
S113034040EA50E40E941503C62FD72F182F092F17
S1130350609100017091010180E090E00E948702A9
S11303606B017C018C2F9D2FA12FB02FBC01CD01DF
S113037020E030E040E05FE30E94F60120E030E05E
S113038048EC52E40E9415039B01AC01C701B6017D
S11303900E94F7010E945B02DC01CB0190930101F2
S11303A080930001DF91CF911F910F91FF90EF9007
S11303B0DF90CF9008950E945F010E9435010E9452
S11303C0DE0081E891E060E070E044E650E00E94E5
S11303D053008BE491E068EE73E048EE53E00E9432
S11303E053000E94F4000E94A700FDCF5058BB2781
S11303F0AA270ED0E0C0D1D030F0D6D020F031F40E
S11304009F3F11F41EF4C6C00EF4E095E7FBBCC098
S1130410E92FE2D080F3BA176207730784079507C0
S113042018F071F49EF5FAC00EF4E0950B2EBA2F75
S1130430A02D0B01B90190010C01CA01A0011124E6
S1130440FF27591B99F0593F50F4503E68F11A1692
S1130450F040A22F232F342F4427585FF3CF469523
S113046037952795A795F0405395C9F77EF41F1645
S1130470BA0B620B730B840BBAF09150A1F0FF0F0F
S1130480BB1F661F771F881FC2F70EC0BA0F621FFB
S1130490731F841F48F4879577956795B795F795EB
S11304A09E3F08F0B3CF9395880F08F09927EE0F7D
S11304B097958795089598D088F09F5790F0B92F15
S11304C09927B751A0F0D1F0660F771F881F991FA5
S11304D01AF0BA95C9F712C0B13081F09FD0B1E0DB
S11304E008959CC0672F782F8827B85F39F0B93FEB
S11304F0CCF3869577956795B395D9F73EF49095A7
S11305008095709561957F4F8F4F9F4F0895E89424
S113051009C097FB3EF490958095709561957F4F47
S11305208F4F9F4F9923A9F0F92F96E9BB279395F5
S1130530F695879577956795B795F111F8CFFAF405
S1130540BB0F11F460FF1BC06F5F7F4F8F4F9F4F36
S113055016C0882311F096E911C0772321F09EE894
S1130560872F762F05C0662371F096E8862F70E0FA
S113057060E02AF09A95660F771F881FDAF7880FD4
S11305809695879597F9089597F99F6780E870E0A5
S113059060E008959FEF80EC089500240A941616F5
S11305A0170618060906089500240A94121613065D
S11305B0140605060895092E0394000C11F48823EB
S11305C052F0BB0F40F4BF2B11F460FF04C06F5F07
S11305D07F4F8F4F9F4F089557FD9058440F551FDD
S11305E059F05F3F71F04795880F97FB991F61F0B1
S11305F09F3F79F087950895121613061406551F28
S1130600F2CF4695F1DF08C0161617061806991F93
S1130610F1CF86957105610508940895E894BB2788
S113062066277727CB0197F908950BD0C4CFB5DFA0
S113063028F0BADF18F0952309F0A6CFABCF112428
S1130640EECFCADFA0F3959FD1F3950F50E0551F6D
S1130650629FF001729FBB27F00DB11D639FAA2713
S1130660F00DB11DAA1F649F6627B00DA11D661F62
S1130670829F2227B00DA11D621F739FB00DA11D83
S1130680621F839FA00D611D221F749F3327A00D3D
S1130690611D231F849F600D211D822F762F6A2FD9
S11306A011249F5750408AF0E1F088234AF0EE0F5E
S11306B0FF1FBB1F661F771F881F91505040A9F76B
S11306C09E3F510570F060CFAACF5F3FECF3983E98
S11306D0DCF3869577956795B795F795E7959F5FD2
S11306E0C1F7FE2B880F911D9695879597F908956C
S11306F0AA1BBB1B51E107C0AA1FBB1FA617B70744
S113070010F0A61BB70B881F991F5A95A9F780955F
S10F07109095BC01CD010895F894FFCF32
S9030000FC
